:020000040800F2
:1000000050650120D5030008D12A00084D260008BC
:10001000CF2A00084F200008093700080000000020
:1000200000000000000000000000000015030008B0
:10003000512000080000000071030008B9330008D7
:10004000EF030008EF030008EF0300086131000828
:10005000EF030008EF03000855200008EF03000835
:10006000AD200008052100085D210008EF0300080D
:10007000EF030008EF030008EF030008EF03000898
:10008000EF030008EF030008EF030008EF03000888
:10009000EF030008EF030008EF030008B521000894
:1000A000EF030008EF030008EF030008EF03000868
:1000B000EF030008EF030008EF030008EF03000858
:1000C000EF030008EF030008EF030008EF03000848
:1000D000EF03000841340008C1340008253500084A
:1000E000EF0300082D2D0008EF030008EF030008C0
:1000F000EF030008EF030008EF030008EF03000818
:10010000EF030008EF030008EF030008EF03000807
:10011000EF030008EF030008EF030008EF030008F7
:10012000EF030008EF030008EF030008EF030008E7
:10013000EF030008EF030008EF030008EF030008D7
:10014000EF030008EF030008EF030008EF030008C7
:10015000EF030008EF030008EF030008EF030008B7
:10016000EF030008EF030008EF030008EF030008A7
:10017000EF030008EF030008EF030008EF03000897
:10018000EF030008EF03000800F002F800F0B2F8F7
:100190000AA090E8000C82448344AAF10107DA45E2
:1001A00001D100F0A7F8AFF2090EBAE80F0013F082
:1001B000010F18BFFB1A43F001031847A46A04009B
:1001C000C46A04000A444FF0000C10F8013B13F01D
:1001D000070408BF10F8014B1D1108BF10F8015BA0
:1001E000641E05D010F8016B641E01F8016BF9D193
:1001F00013F0080F1EBF10F8014BAD1C0C1B09D1EA
:100200006D1E58BF01F801CBFAD505E014F8016B5B
:1002100001F8016B6D1EF9D59142D6D370470000ED
:100220000023002400250026103A28BF78C1FBD8FF
:10023000520728BF30C148BF0B6070476E2900F0DD
:10024000CE84702900F0FF8166290DF08081652938
:100250000DF07D8167290DF07A816129AFF300806F
:1002600003681B0A28BF41F08001692900F07081F2
:10027000642900F06D81752900F06A816F2900F012
:10028000C785782900F0CB81E92900F06185E42950
:1002900000F05E85F52900F05B85EF2900F0C4854C
:1002A000F82900F0CA810368DB0928BF41F080010A
:1002B000632900F0D084732900F0D584E32901F08C
:1002C000B180F32901F0B680002070471FB50DF012
:1002D00034F901F069F90400002000210CF092FBD0
:1002E000401C6060002000210CF0A2FBE0601FBDFC
:1002F00010B510BD01F033F91146FFF7E7FF08F024
:10030000C9FB01F011FA03B4FFF7F2FF03BC03F0DD
:100310008FFF00002C4B19680868B0E8F04F80F39D
:100320000988BFF36F8F4FF0000080F3118870478A
:100330000000000008480068006880F308884FF05B
:10034000000080F3148862B661B6BFF34F8FBFF32D
:100350006F8F00DF00BF00BF08ED00E0DFF80C008A
:10036000016841F470010160704700BF88ED00E052
:10037000EFF30980BFF36F8F134B1A681EF0100F55
:1003800008BF20ED108A20E9F04F106009B44FF04B
:10039000500080F31188BFF34F8FBFF36F8F0BF0C6
:1003A00009FC4FF0000080F3118809BC1968086847
:1003B000B0E8F04F1EF0100F08BFB0EC108A80F3C9
:1003C0000988BFF36F8F704774060020EFF3058034
:1003D000704700000948804709480047FEE7FEE7EC
:1003E000FEE7FEE7FEE7FEE7FEE7FEE7FEE7FEE7E5
:1003F00004480549054A064B70470000E5330008EC
:1004000089010008505F01205065012050610120E2
:1004100050610120704710B54C1084EA530404D594
:100420004042C1F1000138BF491E1B4204D552426F
:10043000C3F1000338BF5B1E00F0E4FA14F0804FF4
:1004400004D04042C1F1000138BF491E14F0004FF2
:1004500004D05242C3F1000338BF5B1E10BD000040
:100460000A46014900F004BC600600200FB40449AC
:1004700010B503AA029800F0FBFB10BC5DF814FB5A
:10048000600600200FB41CB5084B06AA7B446946E1
:100490000090059800F0BDFB04460020694600F07E
:1004A000CBFB20461CBC5DF814FB0000A907000034
:1004B00070B5044685690068C10601D5302600E0A4
:1004C0002026C00707D070BDD4E9012130469047EF
:1004D000206A401C20626D1EF6D570BD70B50446C2
:1004E00085690078C00707D170BDD4E901212020BB
:1004F0009047206A401C20626D1EF6D570BD70B515
:100500000C460546012A05D02878800600D5EA6900
:10051000002302E0012305E05B1C934202D2E05C71
:100520000028F9D1A869E618C01AA861286A1844F9
:1005300028622846FFF7BCFF04E0D5E9012114F842
:10054000010B9047B442F8D32846FFF7C7FF70BDB0
:100550002DE9F0410646002410687529314616A59C
:1005600010D000F0D1FA002802DA404213A507E0CB
:1005700031688A0701D512A502E0490704D511A503
:10058000012401E000F0C9FA00210A2206F1240743
:1005900009E0B0FBF2FCB0FBF2F302FB1C003030D0
:1005A00078541846491C0028F3D123462A46304681
:1005B000BDE8F04100F0BABA000000002D000000D4
:1005C0002B00000020000000F0B40D460188090552
:1005D00002D5214C7C4402E01F4C7C440E340021A7
:1005E00000F1240608E002F00F071209E75D42EA75
:1005F00003721B097754491C52EA0307F3D10278AE
:100600000023120704D5702D06D009B1022311343E
:100610002246F0BC00F08ABA01231034F8E770B526
:1006200004460D462146106800F077FA0246294636
:100630002046BDE870400023C6E7D21D22F0070324
:10064000D3E90023C0E70368126843F02003036086
:100650000823C3610023B7E7E46104002DE9F05FDC
:10066000894604464FF0000ADFF874B1FB44C0F835
:1006700020A02046E1688847002874D0252806D0AD
:10068000D4E901219047206A401C2062F1E700264E
:100690005F462046E16888472028054607DB312D64
:1006A00005D2781910F8200C08B10643F1E7B0071D
:1006B00001D526F00406C4F81CA00027C4F818A031
:1006C0002A2D09D0284603F0FFFC38B304EB870835
:1006D000303DC8F8185019E059F8041B204604EBC7
:1006E00087029161E1688847012F054618D1E069CA
:1006F000002820DA26F020061DE0D8F8180000EBCC
:10070000800005EB40003038C8F818002046E1684A
:100710008847054603F0D8FC0028EED1012F0AD007
:100720002E2D08D12046E16888477F1C0546022F00
:1007300046F02006C4DBA069002803DA404246F0F8
:100740000106A061F00701D026F010066C2D0BD039
:10075000682D09D04C2D39D06A2D35D0742D35D067
:100760007A2D33D016E038E0E1682F4620468847DE
:10077000B842054609D16C2F26D04FF48060E1685D
:10078000064320468847054604E06C2F1AD04FF4F4
:10079000807006430DB3A5F14100192802D8203519
:1007A00046F400664A462946204626604E46FFF734
:1007B00045FD80B101280BD0F61D26F0070000F1A1
:1007C000080956E74020E4E78020D8E70020D6E774
:1007D00006F104094DE7284652E7206ABDE8F09F7C
:1007E0007461040070B5064600F008F90468054617
:1007F00030460A22002100F021FB2C6070BD000071
:10080000014A00F053BB0000E806002030B5054661
:100810000B462A4613F8014B12F8010B08B1A0420F
:10082000F8D01CB1002802D06D1CF1E7284630BD7D
:1008300040EA010310B59B070FD1042A0DD310C85D
:1008400008C9121F9C42F8D020BA19BA884201D9AF
:10085000012010BD4FF0FF3010BD1AB1D30703D0F7
:10086000521C07E0002010BD10F8013B11F8014BAD
:100870001B1B07D110F8013B11F8014B1B1B01D1C9
:10088000921EF1D1184610BD10B5431C02E010F8BD
:10089000011B71B18107FAD14FF0013202C88C1AE5
:1008A0008C4314EAC211F9D0C01A0A0603D0C01E44
:1008B00010BDC01A10BD0A0401D0801E10BD09026F
:1008C000FCD0401E10BD032A40F2308010F0030C13
:1008D00000F0158011F8013BBCF1020F624498BF93
:1008E00011F801CB00F8013B38BF11F8013BA2F130
:1008F000040298BF00F801CB38BF00F8013B11F0AB
:10090000030300F0F582083AC0F0088051F8043B78
:10091000083A51F804CBA0E80810F5E7121D5CBFB7
:1009200051F8043B40F8043BAFF30080D20724BFEA
:1009300011F8013B11F801CB48BF11F8012B24BF7E
:1009400000F8013B00F801CB48BF00F8012B7047CD
:1009500002F0FF0343EA032242EA024200F002B837
:100960004FF000020429C0F0128010F0030C00F0D8
:100970001B80CCF1040CBCF1020F18BF00F8012B56
:10098000A8BF20F8022BA1EB0C0100F00DB85FEA24
:10099000C17C24BF00F8012B00F8012B48BF00F8F0
:1009A000012B70474FF0000200B51346944696465F
:1009B000203922BFA0E80C50A0E80C50B1F1200172
:1009C000BFF4F7AF090728BFA0E80C5048BF0CC020
:1009D0005DF804EB890028BF40F8042B08BF70477E
:1009E00048BF20F8022B11F0804F18BF00F8012BF0
:1009F0007047704770477047704700000048704765
:100A0000F05E012053EA020C00F069802DE9F04B02
:100A10004FF00006002B1FBFB3FA83F503FA05F46D
:100A200024FA05F65E4012BF1643B2FA82F502FAC6
:100A300005F4C5F120051EBF22FA05FC44EA0C04AA
:100A4000203556EA044C4FEA144418BF641C4FF09A
:100A500000084FF00009904271EB030C39D30029D4
:100A600019BFB1FA81F701FA07F6B0FA80F700FA78
:100A700007F6C7F120071EBF20FA07FC46EA0C065E
:100A80002037B6FBF4FCA7EB0507103F07F01F0B60
:100A9000CBF120060CFA0BFB2CFA06F644BFB3464A
:100AA0000026202FA4BF5E464FF0000B5BEA060C29
:100AB00008BF4FF0010B19EB0B09ABFB027C48EBB5
:100AC0000608C01B06FB02CC0BFB03CC71EB0C0130
:100AD000C1E70B46024641464846BDE8F08B13B5D8
:100AE0004FF000004FF00001AFF30080BDE81C4064
:100AF000704710B5FFF782FF006810BD10B50446BF
:100B0000FFF77CFF046010BD09684A0501D540B2BB
:100B10007047C905FCD500B2704709684A0501D580
:100B2000C0B27047C905FCD580B270472DE9F047C7
:100B30000D4699469246044600F12408016888064D
:100B400004D5E06921F01001216000E00120A842F5
:100B500001DD471B00E00027A1697A1902EB0900BB
:100B6000081AA0612078C00602D42046FFF7A0FC36
:100B7000002608E0D4E901211AF806009047206A0F
:100B8000401C761C20624E45F4DB2078C0060AD556
:100B90002046FFF78DFC06E0D4E901213020904784
:100BA000206A401C2062381EA7F10107F4DC07E030
:100BB000D4E9012118F805009047206A401C206202
:100BC000281EA5F10105F3DC2046FFF787FC2078FD
:100BD000000602D50220BDE8F0870120FBE711687E
:100BE0000268006A530501D508700AE0D30501D5F3
:100BF000088006E0130603D5C217C1E9000200E031
:100C0000086001207047000001694A1C02610878F1
:100C1000704700B58FB0CDE901310021059105493C
:100C20007944CDE9031011466846FFF717FD0FB070
:100C300000BD0000E5FFFFFF0A6802F8010B0A6033
:100C4000704710B5436913B1AFF3008001E0FFF7BF
:100C500056FC012010BD127800F124010A70002218
:100C60004A700122EDE711684FF0FF32E9E700001A
:100C7000074B70B50D467B44FFF7CBFF0446284673
:100C800000F02BFC10B14FF0FF3070BD204670BD5E
:100C9000936A00002DE9FF5F15468A460446DFF897
:100CA000AC80F8440027D8E900103E46CDE900109A
:100CB00010E03AF816106A4602A800F012FC411C37
:100CC00007D02178890603D5E269391891420DD8F9
:100CD0000744761C2078800602D5E069B84205DD1D
:100CE000AE42E6DB3AF816000028E2D1A069C01B4C
:100CF000A0612046FFF7DCFBD8E90010CDE9001029
:100D0000002017E03AF818106A4602A800F0E9FB44
:100D1000B0F1FF3F81460BD000250DF1080B05E037
:100D2000D4E901211BF8050090476D1C4D45F7D310
:100D300008F10100B0428046E4DB206A38442062BA
:100D40002046FFF7CBFBBDE8FF9F0000A25B04003D
:100D50002DE9F0418046D21D22F007020025D2E99C
:100D60000002F52915A614D0011E72F1000106DA61
:100D70000023D0EB030063EB020211A608E0D8F8D1
:100D800000108B0701D50FA602E0490701D50EA67A
:100D900001251146002408F1240704E000F0E6F8DC
:100DA00030323A55641C50EA0102F7D12B463246E4
:100DB00021464046BDE8F041FFF7B8BE0000000004
:100DC0002D0000002B0000002000000030B40021A6
:100DD00000F1240408E002F00705D208303542EAA9
:100DE0004372DB086554491C52EA0305F3D10468D9
:100DF000002310A2250708D504F020040C4304D0DA
:100E0000C46901230CA2641EC46130BCFFF78EBE0E
:100E100010B5044621461068FFF77FFE02462046C3
:100E2000BDE810400023D1E7D21D22F00701D1E92F
:100E30000023CBE700000000300000002DE9F04760
:100E400091460F4680460446002614F8015B2DB1FA
:100E500000F084F80068405DC007F6D12B2D02D069
:100E60002D2D18D0641E4A463946204600F0E6FA79
:100E700027B13968A14201D1C7F800804FF00204C0
:100E800071050BD54042002803DDFFF7B7FD046074
:100E9000A007BDE8F08746F48066E4E70028F8DAAA
:100EA000FFF7ACFD04606FF00040F2E72DE9F04180
:100EB00015460E46040002D12C6804B90BA4204646
:100EC00000F03FFB0444207870B127463146384695
:100ED00000F027FB0444207810B1002004F8010B37
:100EE00038462C60BDE8F0810027F9E700000000DB
:100EF00010B5203AC0F00B80B1E81850203AA0E8B5
:100F00001850B1E81850A0E81850BFF4F5AF5FEAE8
:100F1000027C24BFB1E81850A0E8185044BF18C99B
:100F200018C0BDE810405FEA827C24BF51F8043B42
:100F300040F8043B08BF7047D20728BF31F8023B96
:100F400048BF11F8012B28BF20F8023B48BF00F82A
:100F5000012B704700487047F05E012010B500F08B
:100F600023FB001D10BD00BF9DBA000030B5B0F1DD
:100F70000A024FEA900E71F100034EEA817EB0EB57
:100F80000E0061EB91014FEA101E4EEA017E10EB5C
:100F90000E0041EB11114FEA102E4EEA016E10EBDC
:100FA0000E0041EB11214FEA104E4EEA014E10EBBC
:100FB0000E0041EB1141401841F100014FEAD00011
:100FC00040EA41704FEAD10110EB80054FEA8104FD
:100FD00044EA907444EB01046D1944EB0404521B81
:100FE000A3414FF0000348BF0A3200D530BD401C7A
:100FF00041F1000130BD70472DE9FF4F0C461E4600
:101000004FF0FF378BB0D2E90001DDF860800A9025
:101010008A46C1F30A5505B93D46002108464FF0FE
:101020000000BAF1000F00F4400005DA00EB800088
:101030004FF4400101EA50004FEA9059B9F1010F15
:1010400000DDB9460A9850EA4A000ED044F6105026
:10105000A5F2FF3545432F14B8F1000F1ED075429D
:10106000291E1EDDC9F100021CE0B8F1010F4FF08E
:10107000000001D0302103E0F24305E02154401C80
:10108000B042FBDB30460022002121540B99C1F80D
:101090000880C1E900200FB0BDE8F08FBD1B6D1CBA
:1010A000DEE74A4600DA694206A800F0CFFA06AB4E
:1010B00093E8070003AB83E8070050460A9900F065
:1010C00079FB8DE80700A0F500501F3800900398C9
:1010D000002D09DD42F21F014A46084403A903908E
:1010E000684600F0D8FD08E0A0F500504A461F38D9
:1010F00003A90390684600F0E2FD8DE807000004B4
:10110000000C03D04FF0FF30410800E01046B8F16A
:10111000000F03D00022009215461EE0751E05D474
:10112000FFF724FF303262556D1EF9D5B346012218
:10113000084302D000227F1C04E02078302801D12F
:1011400000227F1E002A099786D01DE0112D07DAA4
:10115000FFF70CFF303262556D1C50EA0102F5D1E9
:10116000084302D00098C8B10EE00021681E05E0D7
:10117000235C625C63542254401E491C8142F7DBAD
:10118000AB46A81B401E0990002004F80B000B98EA
:10119000099AC0F80880C0E9002B7CE711264FF0BF
:1011A000000859E72DE9F04F88460446D21D22F089
:1011B000070191B0D1E90001CDE90A0102F0A5FAD9
:1011C00002460B98C00F01D02D2007E02068810750
:1011D00001D52B2002E0202101EAC000032A09905A
:1011E00001D0072A05DB03464146204600F0E0F91E
:1011F0000BE12078800601D5E06900E00620B8F117
:10120000650F814606D0B8F1660F18D0B8F1670FA8
:1012100070D131E00020B9F1110F009001DB1123F2
:1012200001E009F101030AAA01A90CA8FFF7E4FEF5
:10123000DDE90C70002609F10105834647E0012035
:101240004B4600904FF000470AAA01A90CA8FFF7EF
:10125000D3FEDDE90DB00C995D46002610B909F109
:1012600001000D18B9EB050003D4C0F1FF3609F1F8
:101270000105A5EB09002BE0B9F1010F01DA4FF0F0
:1012800001090020B9F1110F0090484601DD11233A
:1012900000E003460AAA01A90CA8FFF7ADFEDDE9AC
:1012A0000C704D4600268346207800070AD4AB45D3
:1012B00000DA5D4601A8012D04DD411911F8011C79
:1012C000302907D04F4502DA17F1040F04DA012064
:1012D00082460FE06D1EEEE7002F02DCED1B3E4460
:1012E00003E0781CA84200DD7D1CB81B00F1010A58
:1012F0004FF000472078000703D4AA4501DB4FF0E8
:10130000FF3A0021B7F1004F0DF143088DF843106B
:1013100024D002202B23002F01DA7F422D230A2123
:10132000021EA0F1010000DC5FB197FBF1FC97FB0E
:10133000F1F201FB1C7C17460CF1300C08F801CDD2
:10134000EEE7A8F1010003702188090501D54521C8
:1013500000E06521A0F1010800F8011C09980FA91F
:10136000A1EB0807FF1D00B10120411901EBEA7054
:10137000A1693844081A401EA0612078C00602D432
:101380002046FFF795F8099828B1D4E90121904744
:10139000206A401C20622078C00622D52046FFF734
:1013A00087F81EE0002E04DBB34502DD01A8805D56
:1013B00000E03020D4E901219047206A401C2062DF
:1013C000761CAAF101005FEA000A0AD100F0ECF8ED
:1013D000C0680168405CD4E901219047206A401C44
:1013E0002062281EA5F10105DCDC07E0D4E901211B
:1013F00018F8010B9047206A401C2062381EA7F1A4
:101400000107F3DC2046FFF769F8032011B043E63B
:1014100010B5436913B1AFF3008001E0FFF73AFC68
:10142000012010BD128800F1240182840022C284B0
:101430000122EDE711684FF0FF32E9E72DE9F05F97
:10144000824615468B4600270AF10104B94600780A
:10145000302801D09DB113E014F8010B0127782842
:1014600003D0582801D045B10AE00DB1102D07D1A5
:10147000002714F8010B102502E0082500E00A25DA
:101480000026B0460EE005FB080005FB06F101272B
:101490001FFA80F801EB1046B6F5803F00D3B9463D
:1014A00014F8010B294600F0C3F80028EBDABBF171
:1014B000000F05D00FB1641E00E05446CBF8004089
:1014C000B9F1000F06D0FFF799FA02210160C81E9A
:1014D000BDE8F09F48EA0640FAE7007B00F0800094
:1014E000704770B516460C460546FFF737FD036892
:1014F00093F80101012806D0FF2C0FD8185D68B1C0
:1015000001202C7070BDD3F807013246214603F24A
:10151000071303442846BDE8704018474FF0FF30DA
:1015200070BD30B503461D781DB10A4603E0AC42DC
:1015300001D1181A30BD12F8014B002CF7D15B1CF9
:10154000F1E730B503461D783DB10A4612F8014B6C
:101550001CB1AC42FAD15B1CF5E7181A30BD7546D8
:10156000FFF7F8FCAE4605006946534620F0070039
:10157000854618B020B5FEF73BFFBDE820404FF090
:1015800000064FF000074FF000084FF0000B21F06D
:101590000701AC46ACE8C009ACE8C009ACE8C0093A
:1015A000ACE8C0098D46704700487047105F0120C5
:1015B0002DE9F0411F46044603260168072A01F47D
:1015C000006004DB08B116A505E016A503E008B12C
:1015D00015A500E015A521F010002060A069C01E2F
:1015E000A0610FB1401EA0612046FEF761FF4FB120
:1015F000D4E9012138469047206A401C2062C01C73
:10160000206206E0206AFAE7D4E9012115F8010B0F
:101610009047761EF8D22046FEF760FFBDE8F081C5
:101620004E414E006E616E00494E4600696E660086
:101630003A2800D2303820F02002412A01D3A2F10A
:101640003700884201D34FF0FF3070472DE9F04753
:10165000814616468AB0334878440DC88DE80D009F
:1016600030487844801C03AC0DC884E80D0041F676
:101670009B300844372190FBF1F290FBF1F5A5F186
:10168000800501FB12041B3C02D56442012000E0EE
:101690000020DFF890A080460027FA44AAF1BE0A95
:1016A0000DE0E00709D03246684607EB47010AEB38
:1016B000810100F004FB8DE8070064107F1C002C02
:1016C000EFD1184F7F44AC3F18E0E80714D007EB88
:1016D00004100DF1180A90E80E008AE80E00C068A8
:1016E000F04201D198190890324606A903A800F0EB
:1016F000E6FA03AB83E807006D10641C002DE4D10B
:1017000032466946B8F1000F03A802D000F0C3FAD0
:1017100001E000F0D4FAC9E90001C9F808200AB0D4
:10172000BDE8F087105304000446AFF30080204664
:10173000FEF7E9FD4FF0013C50F8042B51F8043B53
:101740009A4221D1A2EB0C03934313EACC1317D195
:1017500050F8042B51F8043B9A4215D1A2EB0C032C
:10176000934313EACC130BD150F8042B51F8043BEC
:101770009A4209D1A2EB0C03934313EACC13DBD0BA
:101780004FF00000704700BFD01A01BAB1FA81F1E2
:1017900001F0180122FA01F0CB40C1F12001DBB2C7
:1017A000C0B2C01A2CFA01F3D11A914311EAC31145
:1017B000E6D170475FEA400C08BF91F0000F4FEA96
:1017C0008C234FEAC12243EA51514FEA1C5018BF03
:1017D00000F5F0404FEA300018BF41F000415FEAE9
:1017E0006C5C00F02980BCF1FF3F08BF40F08040F6
:1017F0007047130C06BF12044FF0100C4FF0000C92
:10180000130E04BF12020CF1080C130F04BF1201D7
:101810000CF1040C930F04BF92000CF1020CD30FD7
:1018200004BF52000CF1010C11464FF00002A0F170
:101830001F00A0EB0C00704711F0004F08BF70476D
:1018400031F000413FF4D5AF0B0C06BF09044FF057
:10185000100C4FF0000C0B0E04BF09020CF1080C29
:101860000B0F04BF09010CF1040C8B0F04BF89009E
:101870000CF1020CCB0F04BF49000CF1010CCCF1B0
:101880002003A0EB0C0022FA03F302FA0CF241EA67
:10189000030100F10100704720F07F4C80EA030053
:1018A00023F07F47ACEB070303F57C5300F00040C7
:1018B00003F1FF032DE980494FEA154B09B44FEAC4
:1018C000144325EA0B4E24EA03480FF2042606EBE4
:1018D000132749083E785FEA320203FB0667C7F523
:1018E000000707FB06F64FEA54374FEAD64606F1E3
:1018F000020607FB066CCCF1005C4FEA1C472CEAA1
:10190000074C07FB06F40CFB06F504EB15464FEA03
:10191000961634BF00204FF000404FEAD13706FB47
:1019200007FC4FEA1C4C0CFB0BF7D21B03FB0CF71C
:1019300061EB07010CFB0EF7B0EB074072EB1742AF
:101940000CFB08F734BFA2EB0742B2EB074261EB96
:1019500017414FEA0C444FEA910706FB07FC4FEA98
:101960001C4C0CFB0BF7B0EBC74072EB573203FB80
:101970000CF734BFA2EBC742B2EBC74261EB573161
:101980000CFB0EF7B0EBC70072EB57720CFB08F7BD
:1019900034BFA2EBC702B2EBC70261EB5771039FE2
:1019A0004FEA816141EA921104EBCC044FEAD1374E
:1019B0004FEA826206FB07FC42EA90124FEA80601F
:1019C0004FEA1C4C0CFB0BF7D21B03FB0CF761EB33
:1019D00007010CFB0EF7B0EB074072EB17420CFB54
:1019E00008F734BFA2EB0742B2EB074261EB1741A5
:1019F0004FEA8C554FEA910704EB9C2406FB07FC49
:101A00004FEA1C4C0CFB0BF7B0EBC74072EB5732A4
:101A100003FB0CF734BFA2EBC742B2EBC74261EB4A
:101A200057310CFB0EF7B0EBC70072EB57720CFB93
:101A300008F734BFA2EBC702B2EBC70261EB5771E4
:101A400015EB4C254FEA816141EA92114FEA82621F
:101A50004FEAD13742EA901206FB07FC44F100043A
:101A60004FEA80604FEA1C4C0CFB0BF7D21B03FBC8
:101A70000CF761EB07010CFB0EF7B0EB074072EBC4
:101A800017420CFB08F734BFA2EB0742B2EB074248
:101A900061EB174115EB1C154FEA813141EA924188
:101AA0004FEA823242EA90424FEA80304FEA0C76A7
:101AB00044F1000448EA03434EEA0B484FF0000E9D
:101AC000B2EB080C71EB030724BF624639464EEBBC
:101AD0000E0E4FF0000B0018524149414BEB0B0B1F
:101AE000B2EB080C71EB03077BF1000B24BF6246DD
:101AF00039464EEB0E0E4FF0000B00185241494193
:101B00004BEB0B0BB2EB080C71EB03077BF1000BFB
:101B100024BF624639464EEB0E0E51EA020718BF4B
:101B200046F0010616EB0E7655F1000254F1000165
:101B300003D5BDE88901BDE80088BDE88901BDE89D
:101B40000048B619524141EB0101A3F1010370476E
:101B500080807F7E7D7C7B7A7978777676757473EA
:101B6000727171706F6E6E6D6C6C6B6A6A696868A9
:101B7000676666656464636362616160605F5F5E3F
:101B80005E5D5D5C5C5B5B5A5A59595858575756B5
:101B9000565555555454535352525251515050501A
:101BA0004F4F4F4E4E4D4D4D4C4C4C4B4B4B4A4A6C
:101BB0004A494949484848474747474646464545B0
:101BC00045444444444343434342424242414141E9
:101BD000002B26D4770021D01CB54FEA370703B479
:101BE0004FF010004FF010014FF000000FBCBDE8A7
:101BF00010400BF1010BBBF1010F08BF5FEA1707A3
:101C000022BF12F1010211F101014FF0004143F135
:101C1000000300F0004043EA00007047F9D3570882
:101C2000DAE746EA064613F1400F4FEA16461FDD93
:101C300013F1200FDFBF16430A46002120335B4219
:101C4000C8D0C3F1200746EA064602FA07F74FEA72
:101C5000164646EA0706C3F1200722FA03F201FA04
:101C600007F721FA03F14FF0000342EA0702B1E758
:101C700046EA020646EA06464FEA164646EA0106E4
:101C8000BCBF46EA0646360C4FF000034FF0000298
:101C90004FF000019EE72DE9C048934630B491E82B
:101CA000380007C831EA400C48BF34EA430C03D57A
:101CB000FFF7F2FDFFF78CFFF0BCBDE800882DE9CF
:101CC000C048934630B491E8380007C810F0804F00
:101CD00008BF13F0804F03D100F005F8FFF778FF3D
:101CE000F0BCBDE8008820F07F4780EA030023F0C5
:101CF0007F4C07EB0C03A3F57C5300F00040A3F1ED
:101D0000FE0392F0000F00F0B38095F0000F00F09A
:101D100077802DE901494FEA11404FEA144621EA44
:101D2000004800FB06FC24EA064708FB06F607FB12
:101D300008F800FB07F718EB06484CEB164C4FEA87
:101D4000124B18EB07484FEA15464CEB174022EAB6
:101D50000B4E0BFB06FC25EA06470EFB06F607FBBF
:101D60000EFE0BFB07F71EEB064E4CEB164C4FF02E
:101D700000061EEB074E4CEB174B18EB0B0840F11F
:101D8000000018EB0E0B58EB000840F100008F1A12
:101D90004FF000013CBFC943661B14BFB5EB040CF8
:101DA00000213CBFC943F61B4FEA17444EEA8E0E92
:101DB00027EA04454FEA1C4704FB07622CEA074C5C
:101DC00005FB07F70CFB05F604FB0CFC16EB0746BE
:101DD00042EB174216EB0C4642EB1C421BEB06068D
:101DE00058EB0202414146EA9E0601D5BDE8018951
:101DF000B619524141EB0101A3F10103BDE801898C
:101E00004FEA14454FEA114724EA054621EA074CF8
:101E100005FB07F406FB07F70CFB06F105FB0CFCC2
:101E200011EB074144EB17444FEA124711EB0C4109
:101E300044EB1C4422EA074C05FB07F206FB07F7BC
:101E40000CFB06F605FB0CFC16EB074642EB1742B3
:101E500016EB0C4642EB1C456A1854F1000148BFD2
:101E60007047B619524141EB0101A3F101037047DC
:101E700095F0000F37D04FEA11424FEA144721EA9C
:101E8000024624EA074C02FB07F106FB07F70CFBAE
:101E900006F402FB0CFC14EB074441EB17414FEA3C
:101EA000154714EB0C4441EB1C4125EA074C02FB9F
:101EB00007F506FB07F70CFB06F602FB0CFC16EB1E
:101EC000074645EB174516EB0C4645EB1C4212192D
:101ED00051F1000148BF7047B619524141EB010171
:101EE000A3F1010370474FEA14454FEA114724EA72
:101EF000054621EA074C05FB07F106FB07F70CFB3B
:101F000006F24FF0000605FB0CFC12EB074241EB1A
:101F1000174112EB0C4251EB1C4148BF704792181D
:101F200041EB0101A3F101037047C9430160704710
:101F30000029816802D041F0010101E021F0010196
:101F400081607047084B10B5D3F8042307490A4055
:101F5000D0E900142143D0E9024004432143114356
:101F6000C3F8041310BD000000200140E030FCFF66
:101F7000C06C80B270470246002012680A4200D04E
:101F80000120704730B542680F4B0C791A400B683E
:101F900042EA04221343436082680C4B4D791A4095
:101FA000D1E9034323438C6844EA450423431343A4
:101FB0008360C26A097D22F47002491EC9B242EAF6
:101FC0000151C16230BD0000FFFEFFFCFDF7FFC004
:101FD00070B5072609290AD9C568A1F10A0404EBDE
:101FE0004404A640B543A3401D43C56007E005690E
:101FF00001EB4104A640B543A3401D4305611F23E7
:10200000072A09D2446B521E02EB820293409C4382
:1020100091400C43446370BD0D2A09D2046BD21F5A
:1020200002EB820293409C4391400C43046370BDD9
:10203000C46A0D3A02EB820293409C4391400C43E8
:10204000C46270BD816841F0804181607047FEE7E5
:102050007047000038B5002000905020EFF3118445
:1020600080F31188BFF34F8FBFF36F8F012000F013
:10207000CDF8012808D10B486A460121006809F013
:1020800031FE012000F0BCF8009838B106494FF04D
:1020900080500860BFF34F8FBFF36F8F84F31188B8
:1020A00038BD00006400002004ED00E038B50020D9
:1020B00000905020EFF3118480F31188BFF34F8F0D
:1020C000BFF36F8F042000F0A1F8012808D10B485E
:1020D0006A460221006809F005FE042000F090F82D
:1020E000009838B106494FF080500860BFF34F8F19
:1020F000BFF36F8F84F3118838BD000064000020A7
:1021000004ED00E038B5002000905020EFF311847A
:1021100080F31188BFF34F8FBFF36F8F082000F05B
:1021200075F8012808D10B486A460421006809F0B7
:10213000D9FD082000F064F8009838B106494FF046
:1021400080500860BFF34F8FBFF36F8F84F3118807
:1021500038BD00006400002004ED00E038B5002028
:1021600000905020EFF3118480F31188BFF34F8F5C
:10217000BFF36F8F102000F049F8012808D10B48F9
:102180006A460821006809F0ADFD102000F038F81B
:10219000009838B106494FF080500860BFF34F8F68
:1021A000BFF36F8F84F3118838BD000064000020F6
:1021B00004ED00E010B55020EFF3118480F3118896
:1021C000BFF34F8FBFF36F8F802000F01FF80128FF
:1021D00008D1010509480022006809F083FD80202C
:1021E00000F00EF8402000F011F8012802D1402044
:1021F00000F006F884F3118810BD00006400002090
:102200000149086070470000143C0140034A014640
:10221000002012680A4200D001207047143C01409F
:1022200030B51A4A8379016853B313688B4313603E
:10223000111D0B680468A3430B60017911440B68FE
:10224000046823430B60114B083319680468A143E9
:1022500019601C1D21680568A94321604179102976
:1022600005D011440A68006802430A6030BD19684D
:10227000026811431960216800680143216030BD84
:102280000079104402688A43026030BD003C01407E
:10229000F0B5002201274FF0030C0B6807FA02F596
:1022A0002B40AB422CD1066853000CFA03F4A64332
:1022B00006600E79D0F800E09E4046EA0E06066001
:1022C0000E79012E01D0022E12D18668A6438660B7
:1022D0004E79D0F808E09E4046EA0E0686604668D1
:1022E000AE43466045688E799640B6B23543456048
:1022F000C568A543C560CC799C40C3681C43C460D5
:10230000521C102AC9D3F0BD4B07DB0E9A40C908F6
:1023100010B500EB8100016A0F249C40A1430162CB
:10232000016A1143016210BD018370472DE9F04736
:10233000DFF8A49082460024D9F8001021F440214F
:10234000C9F80010D9F80010C9F80010234E25462E
:1023500027464FF00108C6F8A072042004F0DAFB0B
:10236000C6F8A0826006040ED6F8240208B1641CE8
:10237000E4B2042004F0CEFB6D1CEDB2082DEAD3CC
:10238000BAF1000FC6F8A072D9F8001021F440216C
:10239000C9F80010D9F8001041F48021C9F80010E4
:1023A0000FD0C6F8A472032006F5287604F0B2FB1D
:1023B000C6F80080032004F0ADFB37602046BDE87E
:1023C000F0874546C6F8A482022006F5287604F078
:1023D000A1FB35600220EEE700040240008040428D
:1023E0002DE9F04105461648016821F440210160BD
:1023F000016841F480210160124E0027C6F8A072E6
:102400003C464FF00108280602D5C6F8A48201E038
:10241000C6F8A4726806050E052004F07BFBC6F81A
:10242000A082052004F076FBC6F8A072052004F017
:1024300071FB641CE4B2082CE5D3BDE8F081000018
:10244000000402400080404270B50D48016821F44C
:1024500040210160016841F480210160094C0120A4
:10246000C4F8A402C4F8A002042004F5287404F0FF
:1024700051FB00256560042004F04CFB256070BD15
:1024800000040240008040420E4810B5016821F46B
:1024900040210160016841F4802101600A4C002064
:1024A000C4F8A002C4F8A402042004F5287404F0BF
:1024B00031FB012020606060BDE81040042004F082
:1024C00029BB0000000402400080404270B5124861
:1024D0000024016821F440210160016801600F4D72
:1024E0000126C5F8A462032004F014FBC5F8A0621D
:1024F000032004F00FFB07E0641CE4B2FA2C03D9BC
:10250000FFF7C2FF012070BDD5F824020028F3D1E7
:10251000C5F8A00270BD00000004024000804042E7
:1025200010B50446FFF790FFE620FFF759FFFFF7CD
:10253000CDFF18B1FFF7A8FF002010BD2046FFF720
:102540004FFFFFF7C3FFFFF77FFFE720FFF748FFCD
:10255000FFF7BCFF0020FFF7E9FE0446FFF794FFFA
:10256000204610BD70B515460C460646FFF76CFFB9
:10257000E620FFF735FFFFF7A9FF18B1FFF784FF4B
:10258000012070BD3046FFF72BFFFFF79FFFFFF7DD
:102590005BFFE720FFF724FFFFF798FF08E0012C1F
:1025A0000CD00120FFF7C2FE641E05F8010BA4B297
:1025B000002CF4D1FFF768FF002070BD0020F1E788
:1025C00010B5FFF741FFE620FFF70AFFBDE8104016
:1025D000FFF75ABF70B50C460546FFF735FFE620FA
:1025E000FFF7FEFEFFF772FF18B1FFF74DFF012066
:1025F00070BD2846FFF7F4FEFFF768FF2046FFF79F
:10260000EFFEFFF763FFFFF73FFF002070BD000004
:102610007CB50121022000F0B5FA01208DF80400FC
:102620008DF8060003218DF80510074D4FF4407416
:102630008DF80700009469462846FFF729FE2146D9
:102640002846FFF771FE7CBD00040240FEE7000053
:1026500070B50D4C0025C4F8A0520C48016821F457
:1026600040210160016841F480210160C4F8A45256
:10267000022004F5287404F04DFA012020600220A5
:1026800004F048FA256070BD00804042000402401A
:102690001CB50121022000F075FA4FF440700124AE
:1026A00000908DF804408DF8064003208DF8050059
:1026B0008DF8074069460448FFF7EAFD0348C0F873
:1026C000A042C0F8A4421CBD000402400080404269
:1026D00070B50D4C0026C4F8A0620C48016821F4C6
:1026E00040210160016841F4802101600125C4F8A6
:1026F000A452022004F5287404F00CFA256002208C
:1027000004F008FA266070BD0080404200040240D8
:102710002DE9F047814616480024016821F4402144
:10272000016001680160134E254627464FF00108FD
:10273000C6F8A072022004F0EDF9C6F8A082600687
:10274000040ED6F8240208B1641CE4B2012004F09F
:10275000E1F96D1CEDB2082DEAD3B9F1000F04D0F8
:10276000FFF776FF2046BDE8F087FFF7B1FFF9E7F6
:1027700000040240008040422DE9F0410546144823
:10278000016821F440210160016841F48021016069
:10279000104E0027C6F8A0723C464FF00108E80929
:1027A000C6F8A4026806050E022004F0B3F9C6F8C4
:1027B000A082022004F0AEF9C6F8A072022004F054
:1027C000A9F9641CE4B2082CE9D3BDE8F08100004B
:1027D000000402400080404270B50D48016821F4B9
:1027E00040210160016841F480210160094C012011
:1027F000C4F8A402C4F8A002042004F5287404F06C
:1028000089F900256560042004F084F9256070BD15
:1028100000040240008040420E4810B5016821F4D7
:1028200040210160016841F4802101600A4C0020D0
:10283000C4F8A002C4F8A402042004F5287404F02B
:1028400069F9012020606060BDE81040042004F0B8
:1028500061B90000000402400080404270B5134896
:102860000024016821F44021016001680160104DDD
:102870000126C5F8A462304604F04CF9C5F8A06200
:10288000012004F047F90AE0641CE4B2012004F0DE
:1028900041F9FA2C03D9FFF7BFFF012070BDD5F82D
:1028A00024020028F0D1C5F8A00270BD0004024047
:1028B0000080404210B5FFF7EBFE80216B2000F056
:1028C000BFF8642004F024F900216B2000F0B8F870
:1028D000032000F081F8002000F079F8322000F0A9
:1028E00098F80021382000F0ABF800216A2000F0B1
:1028F000A7F8FF21232000F0A3F88021372000F063
:102900009FF8752000F011F8682801D0012010BD53
:1029100001216B2000F094F800216C2000F090F869
:10292000C82000F076F8002010BD10B50446FFF76F
:1029300053FFD020FFF720FFFFF790FF2046FFF75F
:102940001BFFFFF78BFFFFF747FFD120FFF714FFB7
:10295000FFF784FF0020FFF7DBFE0446FFF75CFF74
:10296000204610BD2DE9F0411C4615460F4606468F
:10297000FFF732FF7006000EFFF7FEFEFFF76EFF57
:1029800020B1FFF749FF0120BDE8F0813846FFF78D
:10299000F3FEFFF763FFFFF71FFF012000EB460088
:1029A000C0B2FFF7E9FEFFF759FF08E0012D0CD098
:1029B0000120FFF7ADFE6D1E04F8010BEDB2002DF6
:1029C000F4D1FFF729FF0020DEE70020F1E7C00681
:1029D000010E1C2000F034B8C006010E1B2000F0D0
:1029E0002FB8BC2801D3012110E0622801D30221B5
:1029F0000CE02A2801D3032108E0142801D3042184
:102A000004E00A2801D3052100E006211A2000F085
:102A100017B810B504464FF47A70844201D90446C1
:102A200002E0042C00D20424B0FBF4F0401EC1B23A
:102A3000192000F005F86008BDE81040FFF7D1BF8D
:102A400070B50C460546FFF7C7FED020FFF794FE91
:102A5000FFF704FF50B92846FFF78EFEFFF7FEFE92
:102A60002046FFF789FEFFF7F9FE18B1FFF7D4FE05
:102A7000012070BDFFF7D0FE002070BD2DE9F041B0
:102A80001D4616460C460746FFF7A6FE7806000EC2
:102A9000FFF772FEFFF7E2FE60B92046FFF76CFE1B
:102AA000FFF7DCFE00240CE0285DFFF765FEFFF772
:102AB000D5FE20B1FFF7B0FE0120BDE8F081641C17
:102AC000E4B2B442F0D3FFF7A7FE0020F5E7FEE73B
:102AD000704700F01F02012191404009800000F181
:102AE000E020C0F88011704700F01F0201219140E2
:102AF0004009800000F1E020C0F80011704700009C
:102B000030B50F23C27801780125FAB1144A126852
:102B100001F1E02102F4E062C2F5E062C2F30722B3
:102B2000C2F10404D3404278A24084781C4014438C
:102B3000220181F80024007800F01F018D40400937
:102B4000800000F1E020C0F8005130BD01F01F000E
:102B500085404809800000F1E020C0F8805130BD78
:102B60000CED00E00249084302490860704700008C
:102B70000000FA050CED00E0014908627047000012
:102B800000000E42044A0029116801D0014300E010
:102B9000814311607047000030380240044A002928
:102BA000116801D0014300E08143116070470000CB
:102BB00040380240044A0029116801D0014300E076
:102BC00081431160704700004438024070B5204BCB
:102BD0001968204C11F00C0104D06610042903D0B0
:102BE000082903D004601BE0066019E0184A121F90
:102BF0001168C1F38055116801F03F0115B1B6FBB2
:102C0000F1F101E0B4FBF1F114681268C4F3881427
:102C10006143C2F30142521C5200B1FBF2F1016068
:102C200019680F2202EA11110B4A545C0168E14055
:102C300041601C68072505EA9424145D21FA04F418
:102C400084601B6805EA5333D25CD140C16070BD1B
:102C5000083802400024F4006406002002460020E8
:102C6000510901290BD002290CD00849096802F04A
:102C70001F02012393400B4200D0012070470349FB
:102C80007439F3E70149091FF0E700007438024086
:102C90000149086070470000800E47420149086002
:102CA000704700003C0E4742C0F30121032907D1C1
:102CB000074B1968074A21F4F81102400A431A60C9
:102CC000034968310A68C0F30B0002430A60704789
:102CD00008380240FFFCFF0F38B50022124C00926A
:102CE000CA222260532222600F4A1C3A002911682E
:102CF00002D00143116012E0814311600A4A183A80
:102D000095131168009B01EA10215B1C0093AB42F4
:102D100001D00029F5D0116811EA102000D001205F
:102D2000FF21216038BD00002428004070B55020EC
:102D3000EFF3118480F31188BFF34F8FBFF36F8FD0
:102D40004FF48055284600F083F801280BD107483E
:102D500000222021006808F0C5FF284600F01EF878
:102D60006801FFF74DFA84F3118870BD64000020FC
:102D7000010901EB810100F00F0000EB4100C0B23E
:102D80007047002103E0491C0A38C9B2C0B20A28C2
:102D9000F9D2090740EA116070470000C0F30F1034
:102DA00040F08000C1430348026802F080021143F2
:102DB000016070470C28004008B50D4900200090C4
:102DC0000868400612D44FF0FF3008608B13086883
:102DD000009A00F04000521C00929A4201D0002854
:102DE000F5D00868400601D4002008BD012008BDC8
:102DF0000C2800400248016821F080010160704702
:102E00000C280040020010B50F480C4601680F481E
:102E100001EA00014FEA1140E070C1F3042363703E
:102E200001F03F03A370C1F3423121700AD1FFF7D3
:102E30009FFFE0706078FFF79BFF6070A078FFF75E
:102E400097FFA07010BD0000042800403FFFFF0066
:102E50000B4A0021126802F00403094A383A12684A
:102E600003EAD03302401A43064B1B6803EA1010F2
:102E700003D00004000C00D0012108467047000078
:102E8000402800400C280040020010B510480C46B5
:102E90000168104801EA0001C1F305402070C1F348
:102EA0000623637001F07F03A3704FF0400303EA31
:102EB0001141E1700AD1FFF75BFF20706078FFF7E6
:102EC00057FF6070A078FFF753FFA07010BD00009F
:102ED000002800407F7F7F0030B50E4DCA222A6057
:102EE00053222A600B4C0B4B1C3C1C33002920F056
:102EF0000402216800F0040004D011432160196825
:102F0000014303E091432160196881431960FF2068
:102F1000286030BD2428004070B5124D04460026BC
:102F2000CA20286053202860FFF746FFA8B10D484B
:102F30001C38016821F040010160016822681143DA
:102F400001600848A168143801600168A28841EA5C
:102F500002410160FFF74EFF0126FF202860304646
:102F600070BD00002428004070B514460D46264A66
:102F70000021002810684FEA406005D000281CDAC4
:102F80002078FFF7F5FE19E0002800DBE1702078DB
:102F9000FFF7F7FE06046078FFF7F3FE46EA002627
:102FA000A078FFF7EEFE0643E07846EA0046207B75
:102FB000FFF7E7FE46EA006010E0E170207BFFF7D4
:102FC000D7FEA0782178E27840EA014061780902D2
:102FD00041EA02410843217B40EA0160A168CA221C
:102FE00008436168084308491C310A6053220A609B
:102FF000B5F5807F04D00A1F1060FF20086070BD07
:10300000014A1432F8E700000828004070B50C4669
:103010000026010060780FD0FFF7AAFEA078FFF726
:10302000A7FEA078E17840EA0145607821780002A7
:1030300040EA4130054315E0C10603D520F01000F9
:103040000A306070E078FFF79CFE05046078FFF7B7
:1030500098FE45EA0025A078FFF793FE0543207807
:1030600045EA40350D4CCA20206053202060FFF710
:10307000A3FE78B10A480540084820380560FFF7EC
:10308000B9FE06481C380068800602D400F08AF8B1
:1030900000B10126FF202060304670BD242800408A
:1030A0003FFFFF002DE9F0410C460026234F0100B1
:1030B0002078396832464FEA416104D0002930DA7D
:1030C000FFF756FE2EE0002900DBE270FFF759FE05
:1030D00005046078FFF755FE45EA0025A078FFF764
:1030E00050FE0543E07845EA0045144CCA201C34E4
:1030F000206053202060FFF75FFE68B11048054054
:103100000E4808380560FFF775FE3868800602D45F
:1031100000F048F800B10126FF2020603046BDE8ED
:10312000F081E270A078217840EA01456078E1788A
:10313000000240EA01400543D7E7000008280040AC
:103140007F7F7F000549CA220A6053220A60034A32
:10315000103A1060FF2008607047000024280040EB
:1031600070B55020EFF3118480F31188BFF34F8FB7
:10317000BFF36F8F4FF480452846FFF769FE0128A3
:103180000BD1074800221021006808F0ABFD28464B
:10319000FFF704FE2802FFF733F884F3118870BDAF
:1031A0006400002018B50020104B0090CA20186061
:1031B000532018600D491839086820F0A0000860F5
:1031C0004FF400340868009A00F02000521C00926E
:1031D000A24201D00028F5D00868800601D5012060
:1031E00000E00020FF21196018BD000024280040E5
:1031F000084ACA2111605321116006491C390B6825
:1032000023F007030B600B6803430B60FF20106083
:10321000704700002428004018B50021134B00918E
:10322000CA2119605321196010491C390028086807
:1032300003D040F48060086014E020F480600860EF
:103240000A4918398C130868009A00F00400521CCF
:103250000092A24201D00028F5D00868400701D4AE
:10326000002000E00120FF21196018BD2428004043
:103270000029018802D041F0400101E021F0400125
:10328000018070470246002012890A4200D00120C6
:103290007047808970478181704730B502884C88BB
:1032A00002F441530A88CD8822438C882C43224360
:1032B0000C8922434C8922438C892243CC892243A6
:1032C0001A430280828B22F400628283098A01827F
:1032D00030BD000010B58A0721F003040849120F21
:1032E00021440F23D1F8084893409C43C1F8084873
:1032F000D1F8083890400343C1F8083810BD0000E9
:10330000003001400CB50022274900920192086864
:1033100040F4803008604FF4A043086800F40030A7
:1033200001900098401C0090019810B900989842B4
:10333000F3D10868800334D5012001901A48403049
:10334000026842F0805202601848026842F440422B
:1033500002601548083002680260026842F40042C8
:103360000260026842F4A0520260031F104A1A6011
:103370000A6842F080720A600A689201FCD50D4921
:1033800040F205720A60016821F0030101600168E2
:1033900041F0020101600168C1F381010229FAD103
:1033A0000CBD01920CBD00000038024000700040CE
:1033B00008544007003C024010B5502080F31188AB
:1033C000BFF34F8FBFF36F8F09F0F4F818B10449C2
:1033D0004FF080500860002080F3118810BD00007D
:1033E00004ED00E0124810B5016841F4700101607D
:1033F0001048016841F0010101600E4A00210832C5
:10340000116002680C4B1A400260031D0B4A1A60DF
:10341000026822F48022026006480C300160FFF747
:1034200071FF03494FF000608039086010BD000053
:1034300088ED00E000380240FFFFF6FE1030002467
:103440002DE9F0415020EFF3118580F31188BFF38F
:103450004F8FBFF36F8F164E40F2255739463046D7
:1034600000F0BCF800B3304600F046F9114CC1B290
:103470002078114A0244401C20701170232902D088
:10348000207880280CD30D4800231A460A4900688A
:1034900008F060FE0020207040210748FDF760FA28
:1034A0003946304600F083F885F31188BDE8F08195
:1034B000001001405C060020242F00205C0000204A
:1034C00070B5144D40F225563146284600F086F876
:1034D00001281ED1284600F00FF90F4CC0B2226817
:1034E0000E491144521C22600870232802D0206823
:1034F000202808D30A4800231A460849006808F023
:1035000029FE0120606031462846BDE8704000F089
:103510004EB870BD0044004048060020F42E002044
:103520005C0000202DE9F0415020EFF3118580F37D
:103530001188BFF34F8FBFF36F8F174E40F225579F
:103540003946304600F04AF8012820D1304600F0D4
:10355000D3F8124CC1B22078114A0244401C2070AA
:103560001170232902D0207880280CD30D48002325
:103570001A460B49006808F0EDFD0020207040213C
:103580000748FDF70FFA3946304600F010F885F38A
:103590001188BDE8F081000000480040EC050020E3
:1035A000542E00205C000020C943018070470A0AA5
:1035B00001219140C943018070470029818902D0CF
:1035C00041F4005101E021F400518181704702462D
:1035D000002012880A4200D00120704770B501F027
:1035E0001F0501260024C1F3421306FA05F2012B40
:1035F0000FD0022B0FD0838A4FEA1121008813428B
:1036000006FA01F600EA060001D000B101242046C6
:1036100070BD8389F0E7038AEEE710B5C1F342136A
:1036200001F01F040121A140012B07D0022B07D07C
:103630001430002A026805D00A4304E00C30F8E791
:103640001030F6E78A43026010BD00007FB50446E3
:10365000008A0D46C98820F4405001432182A08988
:1036600041F20C618843A9882A8911436A8902437F
:103670001143A181A08A20F44071A8890843A08247
:103680006846FFF7A3FA1A48844202D019488442D8
:1036900001D1039800E00298A189090400EBC00160
:1036A00001EB0010296801D5490000E08900B0FB5A
:1036B000F1F06422B0FBF2F109010B096FF018057B
:1036C0006B4300EB8300A3891D044FF0320306D542
:1036D00003EBC000B0FBF2F000F0070005E003EBE5
:1036E0000010B0FBF2F000F00F00084320817FBD16
:1036F00000100140001401408088C0F308007047AA
:10370000C1F3080181807047FEE703B401984100CE
:10371000009850EAC12018BF04204A0D18BF40F09D
:10372000010040F2FF72B2EB515F08BF40F00200AF
:10373000012808BF052002B070470000000000000B
:1037400070B5C1482DED020B2DED0E8B82B0119D91
:1037500025F000449FEDBEDB9FEDBFEB84423EDBD6
:10376000A4F140511098A1F17F6108430FD0BC48EB
:10377000844202DC28D1109830B39DED100B02B0CA
:10378000BDEC0E8B02B0BDE8704000F069BC9DED51
:10379000100B53EC1D2B51EC100B09F09DFB9DED14
:1037A000100B41EC180B53EC1E2B51EC100B09F0D5
:1037B00093FB53EC182B09F08FF941EC100B02B07E
:1037C000BDEC0E8B02B070BD0120FDF797F902B081
:1037D000BDEC0E8B02B0BDE8704000F055BCA148B6
:1037E0009FEDA18B844256DA9DED100BB4F1795F09
:1037F0000ADA51EC100BFFF788FF042808BF00F02D
:1038000053FC9DED100BDAE753EC102B51EC100B31
:1038100009F062FB41EC190B95480621B0EE490A0C
:10382000F0EE690A784400F09FFB53EC192B51EC41
:10383000100B09F051FB41EC1A0B8E48B0EE490A0F
:10384000F0EE690A0421784400F08EFB53EC192B4A
:1038500051EC100B09F040FB53EC182B09F03CF92C
:1038600041EC100B51EC1A0B53EC102B09F0DCF966
:10387000CDE900019DED000B53EC102B9DED100BDD
:1038800051EC100B09F028FB9DED101B53EC112B94
:1038900009F022F9D2E09DED100B51EC100B03F072
:1038A00029FF53EC182B09F015FC9FED730BCDE9A4
:1038B000000153EC102B9DED000B51EC100B09F0A7
:1038C0000BFB41EC190B6E480621B0EE490AF0EEF5
:1038D000690A784400F048FB53EC192B51EC100BAB
:1038E00009F0FAFA41EC1B0B6648B0EE490AF0EE1B
:1038F000690A0421784400F037FB53EC192B51EC92
:10390000100B09F0E9FA53EC182B09F0E5F841EC3B
:103910001C0B51EC190B07F0D3FC41EC180B5A4867
:103920009FED5BABA04222DC53EC1C2B51EC1B0B3C
:1039300009F07AF9CDE900019DED000B51EC180B6F
:1039400053EC102B09F0C8FA53EC182B09F0C4F80B
:1039500053EC1A2B09F0C0FA53EC1D2B09F092FC22
:1039600053EC1E2B09F0B6FB41EC100B5FE08DED24
:10397000008B002000909DED000B51EC180B53ECD8
:10398000102B09F0A9F89DED000B41EC1E0B53EC38
:10399000102B51EC100B09F09FFA53EC192B09F086
:1039A00099FB53EC1E2B09F03FF941EC190B53EC3A
:1039B0001C2B51EC1B0B09F037F941EC1B0B53ECA2
:1039C0001A2B51EC190B09F087FA53EC1D2B09F057
:1039D00081FB41EC190B53EC1A2B51EC180B09F03D
:1039E0007BFA53EC1B2B09F077FA53EC192B09F0F7
:1039F00049FC9DED000B41EC180B53EC1A2B51ECDC
:103A0000100B09F069FA9FED249B53EC192B09F078
:103A100061FB41EC100B51EC180B53EC102B09F02F
:103A200031FC53EC192B09F055FB41EC100B002D28
:103A30003FF7C5AE51EC100B09F010F841EC100B3C
:103A4000BDE60000000000000000F03F00000000A4
:103A5000075C143326A6913C182D4454FB21F93FF2
:103A60000000F07F0000E03F000000000000F03F99
:103A7000D02F0400DE2F0400000000000000E03F13
:103A8000222F0400302F04003333EF3F00000000EA
:103A90000000000000000040182D4454FB21E93FC5
:103AA00070B59B482DED020B2DED068B079D25F083
:103AB0000044A04218DC9748844202DC0AD10698F0
:103AC00040B19DED060BBDEC068B02B0BDE8704029
:103AD00000F0C6BA002DCCBF9FED8F0B9FED900B71
:103AE000BDEC068B02B070BD8F48A04215DD8F483B
:103AF000A042D8BF4FF0FF3458DD9DED060B51ECCE
:103B0000100BFFF702FE042808BF00F0CDFA9DED70
:103B1000060BBDEC068B02B070BD9DED060B51ECA3
:103B2000100B03F0E7FDCDE9060181489FED828B84
:103B3000A0423CDD8248A0421FDD00249FED82AB05
:103B40009DED060B53EC1A2B51EC100B08F0C4FF43
:103B50009DED060B41EC190B53EC1A2B51EC100B9D
:103B600009F0BAF953EC182B09F08CFB53EC192B24
:103B700009F05AF8CDE9060149E09DED060B012454
:103B800053EC182B51EC100B08F0A6FF9DED060B23
:103B900041EC190B53EC182B51EC100B09F072FB94
:103BA00053EC192B09F040F8CDE906012FE06848E5
:103BB000A0421FDD02249FED689B9DED060B53EC98
:103BC000192B51EC100B09F087F953EC182B08F066
:103BD00083FF9DED060B41EC180B53EC192B51ECB8
:103BE000100B09F04FFB53EC182B09F01DF8CDE931
:103BF00006010CE09DED060B032453EC102B9FED0A
:103C0000580B51EC100B09F00FF8CDE906019DEDB2
:103C1000060B53EC102B51EC100B09F05DF941EC45
:103C2000180B53EC182B09F057F941EC190B4E48BF
:103C30000621B0EE490AF0EE690A784400F094F9E2
:103C400053EC182B51EC100B09F046F941EC180B12
:103C50004648B0EE490AF0EE690A0521784400F0C2
:103C600083F953EC192B51EC100B09F035F941ECA9
:103C7000100B51EC180B53EC102B002C0EDA08F043
:103C80002BFF9DED061B53EC112B09F025F99DED43
:103C9000061B53EC112B09F01DFA35E008F01CFF50
:103CA0009DED061B53EC112B09F016F941EC100B9E
:103CB0002F48784400EBC40090ED001B51EC100B32
:103CC00053EC112B09F0DEFA9DED061B53EC112B82
:103CD00009F0D8FA41EC100B2648784400EBC400F8
:103CE00090ED001B51EC100B53EC112B09F0F2F985
:103CF00041EC100B002DA2BFBDEC068B02B070BDD5
:103D000051EC100B08F0AAFE41EC100B01E700008B
:103D1000000010440000F07F182D4454FB21F93FAF
:103D2000182D4454FB21F9BF0000DC3F0000203E69
:103D30000000F33F00000000000000000000F03F22
:103D40000000E63F0000000000000000000000400E
:103D50000080034000000000000000000000F83F69
:103D6000000000000000F0BF7A2C0400302C04009A
:103D7000BA2B0400722B040070B56B4E2DED040BB2
:103D80002DED028B82B0DDF81CC0DDE905235C421D
:103D90002CF000411C4341EAD474049D22F0004001
:103DA000B44205D86C422C4340EAD474B4420BD9D7
:103DB0009DED061B9DED040B02B0BDEC028B04B023
:103DC000BDE8704000F056B9ACF14054A4F17F64F6
:103DD0001C430BD0022404EAAC7444EAD2740543B9
:103DE0009FED538B9FED542B07D015E09DED040BF9
:103DF00051EC100B02F0FCFD42E0002C11BF012C35
:103E00009DED040B02B0BDEC028B04BF04B070BD8D
:103E1000022C38D0032C3BD00B439FED491B9FED68
:103E20004A0B0AD0B14218D1B04209D121F08041E9
:103E300020F08040079105900FE0002A15DA10E08D
:103E4000434B7B44002C08BF93ED000B0DD0012C9D
:103E500010D0022C17D0032C1AD0B0421DD1002A4A
:103E600003DAB0EE410AF0EE610A02B0BDEC028B5B
:103E700004B070BD93ED000B51EC100B08F0EEFD9B
:103E800041EC100BF1E7B0EE480AF0EE680AECE7FF
:103E9000B0EE420AF0EE620AE7E7401A00153C284D
:103EA000C8BF8DED000B19DCBCF1000FBEBF10F1D7
:103EB0003C0F9FED290B8DED000B0FDB9DED060BED
:103EC00053EC102B9DED040B51EC100B08F0ACFEE5
:103ED00003F010FC02F08CFDCDE90001002C08BFBE
:103EE0009DED000BC1D0012C10D0022C9FED1C0BBE
:103EF00053EC102B9DED000B51EC100B0DD009F085
:103F0000C1F953EC182B09F0BDF9B9E7019880F01D
:103F1000004001909DED000BA7E709F0B3F953ECC9
:103F2000182B09F0D7F8ABE70000F07F0000000085
:103F3000182D4454FB210940182D4454FB2109C07D
:103F4000182D4454FB21F9BF182D4454FB21F93F8F
:103F5000A22A040000000000000000000000000091
:103F6000075C143326A6A13C70B504462DED028BE8
:103F70004D1E00EBC500B0EE408AF0EE608A90ED79
:103F8000000B35F0060017D053EC182B51EC100B3A
:103F900008F0A2FF41EC100B6D1E04EBC50090ED84
:103FA000001B51EC100B53EC112B08F095FD41EC6C
:103FB000100B35F00600E7D1022D36D0042D1CD0B1
:103FC000062D1CBFBDEC028B70BD53EC182B51ECC1
:103FD000100B08F081FF94ED0A1B53EC112B08F035
:103FE0007BFD53EC182B08F077FF94ED081B53EC86
:103FF000112B08F071FD41EC100B53EC182B51EC18
:10400000100B08F069FF94ED061B53EC112B08F020
:1040100063FD53EC182B08F05FFF94ED040B53EC99
:10402000102B08F059FD41EC100B53EC182B51EC00
:10403000100B08F051FF94ED021B53EC112B08F00C
:104040004BFD53EC182B08F047FF94ED001B53EC8D
:10405000112B08F041FDBDEC028B41EC100B70BD43
:1040600010B553EC102B51EC100B08F035FD41EC62
:10407000100B10BD10B553EC112B51EC100B08F0C8
:104080002BFD41EC100B10BD9FED050B10B553EC53
:10409000102B51EC100B08F0C7FD41EC100B10BDBC
:1040A00000000000000000009FED050B10B553EC70
:1040B000102B51EC100B08F00FFF41EC100B10BD52
:1040C000000000000000001030380A2801D2012052
:1040D00070470020704700002DE9F05F4F4E002729
:1040E000C6F898720125C6F89C524D4CC4F89852F7
:1040F000C4F8A052022004F50B7402F009FD2068F8
:10410000A4F50B74002865D0DFF81891D9F81402D3
:10411000002865D0DFF81081D8F81802F0B3DFF876
:104120000CA1DAF82402D0B3C6F89852C6F89C72F3
:10413000C4F89852C4F8A052022002F0E9FCD4F866
:104140002C0268B3D9F8140258B3D8F8180248B34F
:10415000DAF8240238B3C6F89852C6F89C52002008
:10416000A346C4F89802C4F8A052022004F50B74C8
:1041700002F0CEFC206878B3D9F814024C4660B344
:10418000D8F81802474648B3DAF8240238B3C6F81C
:104190009852C6F89C52CBF8985205E022E023E0F2
:1041A00024E025E026E027E00020CBF8A002022052
:1041B0000BF50B7602F0ACFC306838B3D4F814027F
:1041C00030B3D7F8180228B3DAF8240220B34E200F
:1041D000BDE8F09F3120FBE710E011E012E013E0B2
:1041E0003220F5E73320F3E74120F1E73420EFE711
:1041F0003520EDE73620EBE74220E9E73720E7E717
:104200003820E5E73920E3E74320E1E72A20DFE72C
:104210003020DDE72320DBE74420D9E7008041425E
:104220000000414200004242000040420000434280
:1042300070470000FEB506460D460024684603F0B0
:104240007DFA00229FED1B1A6B46012156F82200D1
:1042500055F82270C01B00D5404200EE100A03EB57
:104260008200B8EEC00AD0ED000A20EE010AF5EE99
:10427000C00AF1EE10FA0DD0C0EE201AB7EE000A17
:104280000D4F31EEC00AB0EEC00A10EE100AB8426F
:1042900007DC09E010EE100A084F3844084FB84216
:1042A00002D301FA02F00443521C032ACEDB20465B
:1042B000FEBD000000008037295C0F3E666666C1C7
:1042C0009A99D9001CB501210846FEF75BFC012133
:1042D0000802FEF76FFC2020009003208DF80400F8
:1042E00000248DF8074069461348FDF7D1FF1348B5
:1042F000046044608460C460FDF724FE0F484FF002
:1043000040711838016004710121417184600461B9
:1043100001750B4C01462046FDF734FE00230122B7
:1043200005212046FDF754FE01212046FDF700FE41
:104330002046FDF787FE1CBD00000240C816002085
:104340000020014010B50A4C02212046FDF713FE63
:104350000028F9D002212046FDF7E7FD2046FDF7B1
:1043600007FE40F6E44148433F2190FBF1F010BDC9
:1043700000200140FFF7E6FF05464FF4C8794FF4EF
:1043800080374FF400380D4EFFF7DCFF0446401B2A
:1043900000F1C80149450DD9002801DD394600E08A
:1043A0004146706E07F057FC2246294604A002F0F1
:1043B000D9FB2546C82007F0AFF9E5E7000000204B
:1043C0005B6170705F7461736B5F6164635D2061DA
:1043D00064635F766F6C5F6C6173743D256420610C
:1043E00064635F766F6C3D25640D0A001CB518A0F0
:1043F00002F0B8FB1F4C204D4FF0FF3700263A4625
:104400006946A06D07F004FF0128F8D1DDE900122C
:104410001AA002F0A7FBE6630198002800980ED0CE
:10442000C5F8A00202E00A2007F076F90198401EC4
:104430000190401CF7D1009880F001000090C5F871
:10444000A00200231A461946206F07F0D1FDD6E7D7
:104450005B6170705F7461736B5F626565705D2036
:1044600063726561746520737563636573730D0AA8
:104470000000000000000020008042425B6170707C
:104480005F7461736B5F626565705D206265657006
:104490002E7374613D256420626565702E647572AB
:1044A0006174696F6E3D25640D0A00008AB00024B6
:1044B0000394049405940694079424A0089402F0AD
:1044C00051FB002007F010FB2DA002F04BFB344DF8
:1044D00041F2707603A802F07BFBEC63002831D137
:1044E0000594069407940894A869012807D19DF8BB
:1044F0000F309DF80E202BA105A8FBF7C3FFA8697C
:10450000022807D19DF80D309DF80C2029A105A89F
:10451000FBF7B8FF05A8FCF7B7F94001F021A1EBC4
:10452000500020214FF6FF72CDE90021C0F34F006B
:104530000023029405AAA02104F02CFA05A921A0C9
:1045400002F010FB304607F0E7F8C3E75B617070DC
:104550005F7461736B5F6468745D2063726561741E
:1045600065207375636365737320616E6420737572
:104570007370656E642073656C66200D0A00000020
:104580005B6170705F7461736B5F6468745D2072EF
:104590006573756D6520737563636573730D0A00CC
:1045A0000000002054656D703A253032642E256479
:1045B0000000000048756D693A253032642E25648C
:1045C000000000005B6170705F7461736B5F646812
:1045D000745D2025730D0A0008B530A002F0C2FA00
:1045E000374C4FF0FF364FF480174FF480280025EA
:1045F0004FF400290096002301223946606E07F02F
:1046000079FBC002F6D506F0B5FFE56306F0D2FFF0
:1046100003F086F808282AD00CDC012815D00228DF
:104620001CD00428E6D127A002F09CFA206B0028B9
:10463000E0D130E040281ED08028DBD12DA002F050
:1046400091FA206B012821D025E039A002F08AFAE6
:10465000206B0028CED14FF4803113E03FA002F050
:1046600081FA206B0028C5D14FF400310AE047A041
:1046700002E0414606E052A002F074FA206B0028E6
:10468000B8D1F6E7606E07F0E6FAB3E74FF47A7058
:1046900007F042F825634946F4E700005B6170705B
:1046A0005F7461736B5F676573747572655D2063BA
:1046B000726561746520737563636573730D0A00B9
:1046C000000000205B6170705F7461736B5F6765F1
:1046D00073747572655D204745535F4C45465420A1
:1046E00074726967676572204B45595F4241434B5D
:1046F0000D0A00005B6170705F7461736B5F6765CA
:1047000073747572655D204745535F434F554E5432
:104710005F434C4F434B5749534520747269676759
:104720006572204B45595F4241434B0D0A00000022
:104730005B6170705F7461736B5F676573747572D2
:10474000655D204745535F55502074726967676502
:1047500072204B45595F55500D0A00005B61707027
:104760005F7461736B5F676573747572655D204715
:1047700045535F444F574E207472696767657220D6
:104780004B45595F444F574E0D0A00005B617070F6
:104790005F7461736B5F676573747572655D2047E5
:1047A00045535F5249474854207472696767657280
:1047B000204B45595F454E5445520D0A00000000FC
:1047C0005B6170705F7461736B5F67657374757242
:1047D000655D204745535F434C4F434B5749534515
:1047E0002074726967676572204B45595F454E5466
:1047F00045520D0A00000000F0B587B000246FA0FC
:10480000FBF734FE03F08EFE02F0FAF803F056FCDC
:10481000FFF758FD06F01CFC02F0BCF94FF41655EA
:10482000284602F017F9FEF745F804F00BFA01F0FC
:10483000FDFF03F0B9FB284601F0D8FF06F09AFE11
:1048400000228021052007F065FB654D002208212C
:10485000E865052007F05EFBA86500220121052020
:1048600007F058FB2866012007F042FBA8660120EC
:1048700007F03EFBE86603220021012007F04AFB17
:10488000286707F0DBF9574E68660CE006EBC000BE
:10489000D0E90412CDE900120289C36841683846A4
:1048A00007F048FE641C04EB440056F83070002FFB
:1048B000ECD106F07FFE4C48012300901A464FF4DD
:1048C0007A714AA008F00AF8686107F06DFE0246A6
:1048D0000020034600900121686908F04DF8E8685F
:1048E00007F002F9A86807F0FFF804F071F805F086
:1048F00001FF002858D04FF6FF74204603F087FCD4
:10490000F022502311460020009403F0E9FD3BA063
:1049100002F028F9012068634348302300901A46CA
:104920005021602003F044FD202500232622A021F1
:104930001E20CDE9004503F0E3FF00232722A0213C
:104940003E20CDE9004503F0DBFF00232822A02113
:104950005E20CDE9004503F0D3FF00232922A021EA
:104960007E20CDE9004503F0CBFF00232A22A021C1
:104970009E20CDE9004503F0C3FF00232B22A02198
:10498000BE20CDE9004503F0BBFF4FF4FA6006F00E
:10499000C3FE134905201031CDE9000100232A018F
:1049A00022A1274807F0C6FD2648029002A804F07D
:1049B000F7FE002006F0D6FE07B0F0BD5B61707018
:1049C0005F7461736B5F696E69745D2063726561AA
:1049D000746520737563636573730D0A00000000CE
:1049E0000000002054D5000855B200084175746FCE
:1049F00052656C6F616454696D6572005B617070C3
:104A00005F7461736B5F696E69745D2070616A3792
:104A1000363230753220696E697420737563636550
:104A200073730D0A00000000BC5504086170705FCC
:104A30007461736B5F676573747572650000000065
:104A4000D9450008B40000200EB54E208DF80800AE
:104A50001AA002F087F801251426204CAF1E03F09F
:104A600005FB8DF808004E28F9D001461CA002F085
:104A700079F80023642202A9206E07F0B9FA0146F2
:104A8000012802D01EA002F06DF8CDE900560023E7
:104A900064226946A06D07F0ABFA0146012802D0F6
:104AA00024A002F05FF83946206F07F04DFC014664
:104AB0000128D4D02C4802F055F8D0E75B61707023
:104AC0005F7461736B5F6B62645D206372656174B8
:104AD0006520737563636573730D0A000000002021
:104AE0005B6170705F7461736B5F6B62645D206BA0
:104AF0006264207072657373202563200D0A0000C4
:104B00005B6170705F7461736B5F6B62645D207872
:104B1000517565756553656E64206B6264206572BE
:104B2000726F7220636F64652069732025640D0ABB
:104B3000000000005B6170705F7461736B5F6B629B
:104B4000645D2078517565756553656E6420626596
:104B50006570206572726F7220636F64652069737F
:104B60002025640D0A000000C869040808B546A0A5
:104B700001F0F8FF4C4E4D4D4D4F4FF0FF38CDF842
:104B80000080002301220F21686E07F0B3F804466D
:104B9000142006F0C1FD286C50B10020E863E00746
:104BA0001FD00620FDF795FFD6F8000230B111E0C6
:104BB000012003F035FB01202864E0E73DA001F06F
:104BC000D1FF4FF40031686E07F045F802E00A208B
:104BD00006F0A2FDD6F800020028F8D00620FDF766
:104BE00083FFA00718D50820FDF773FFD7F8080248
:104BF00058B937A001F0B6FF4FF48031686E07F066
:104C00002AF802E00A2006F087FDD7F808020028FB
:104C1000F8D00820FDF768FF600718D50920FDF7D8
:104C200058FFD7F80C0258B930A001F09BFF4FF4A1
:104C30008021686E07F00FF802E00A2006F06CFD94
:104C4000D7F80C020028F8D00920FDF74DFF200707
:104C500095D50A20FDF73DFFD7F8100250B92AA0DC
:104C600001F080FF4FF40021686E06F0F4FF01E0D0
:104C700006F052FDD7F8100200284FF00A00F7D0D6
:104C8000FDF732FF7BE700005B6170705F7461735A
:104C90006B5F6B65795D2063726561746520737508
:104CA00063636573730D0A0000004042000000203A
:104CB000000042425B6170705F7461736B5F6B6593
:104CC000795D2053312050726573730D0A00000026
:104CD0005B6170705F7461736B5F6B65795D2053AE
:104CE000322050726573730D0A0000005B617070B2
:104CF0005F7461736B5F6B65795D20533320507215
:104D00006573730D0A0000005B6170705F746173FE
:104D10006B5F6B65795D2053342050726573730D42
:104D20000A0000002DED028B96B0202103A8FBF7AE
:104D300039FE20210BA8FBF735FEBA48B84E4FF4D8
:104D4000FA710027C164DFF8E0A23D460AF5FA696E
:104D5000804630E0B548D0F824120129FBD013A9D1
:104D6000072003F026FF9DF84C009DF84D108007AA
:104D7000800B40EA01219DF84E000143484649F866
:104D800025109DF84F109DF850208907890B41EAA6
:104D900002219DF8512011434AF8251059F8251099
:104DA000B14201D250F8256050F82510B94201D91E
:104DB00050F825706D1CD8F84C008542CADB59F8B4
:104DC00025004E46974A521C02F15301501E8DE8B1
:104DD00007000B1F964AD8F84C10934803F0A0FF29
:104DE00094A001F0BFFE002006F07EFE9EA001F020
:104DF000B9FEB1469FEDA28A4FF4FA7B8948884DEF
:104E00000026DC46C0F84CB064205746494651F8AD
:104E1000203001EB8002A2F58052C2F8703E57F8B4
:104E20002030BA4607EB8002A2F58052C2F8703EED
:104E300051F82020AA4201D251F8205051F82020E8
:104E4000B24201D951F82060E346401C5845DEDBF0
:104E50004FF4C87709EB870050F8048C7348D0F8FA
:104E600024120129FBD013A9072003F0A2FE9DF80C
:104E70004C009DF84D108007800B40EA01219DF801
:104E80004E00014349F827109DF84F109DF850201F
:104E90008907890B41EA02219DF8512011434AF804
:104EA000271059F8272059F82710424516D9A1EBA9
:104EB000080000EE100A701B00EE900AB8EE400ADF
:104EC000B8EE601AC0EE010A20EE880ABDEEC00AF4
:104ED00010EE100A241A18D5002416E0A8EB0100E1
:104EE00000EE100A701B00EE900AB8EE400AB8EE11
:104EF000601AC0EE010A20EE880ABDEEC00A10EE6C
:104F0000100A0444FF2C00DDFF247F1C5F45A1DB59
:104F1000444A521C501E02F153018DE80700054619
:104F20000B1F434AE96C404803F0FAFE68780128F9
:104F30002FD1686D3C282CDB686D642829DA696DF7
:104F400050A001F00FFE6A6D51A103A8FBF79AFA79
:104F500020264FF6FF77CDE9007600230D22A02111
:104F60003C2003F0CDFCCDE9007600230E22A021E9
:104F70005C2003F0C5FC00200097CDE901600346EA
:104F800003AAA021822003F005FD202103A8FBF73E
:104F900009FD287801283FD1286D5F283CDB286D6A
:104FA000642839DA296D3BA001F0DCFD2A6D38A1B7
:104FB0000BA8FBF767FA20254FF6FF76CDE90065D1
:104FC00000230F22C8211E2003F09AFCCDE90065C2
:104FD00000231022C8213E2003F092FCCDE9006599
:104FE00000231522C8215E2003F08AFCCDE900656C
:104FF00000231222C8217E2003F082FC00200096AC
:10500000CDE9015003460BAAC821A02003F0C2FC41
:1050100020210BA8FBF7C6FC642001F079FDEDE62A
:10502000FFFF0300000000201007002000004142A5
:10503000E00E00205B6170705F7461736B5F6D6187
:105040007833305D206372656174652073756363C6
:1050500065737320616E642073757370656E642070
:1050600073656C660D0A00005B6170705F7461733C
:105070006B5F6D617833305D20737461790D0A0068
:1050800000007F43D0C4C2CA3D25640D0A00000061
:105090003A256400D1AAD1F5C5A8B6C83D25640D4E
:1050A0000A000000002588B007460068A8462E4682
:1050B000A94601908DF81050029504F095F90390DF
:1050C000B2A0019C01F04EFDDFF8E4A2CB464FF008
:1050D000FF300090002301224FF47021DAF86400C1
:1050E00006F008FE8146CAF83CB001200590069003
:1050F0000023642205A9DAF8580006F079FF5FEA78
:10510000C93074D5B8F1000F03D0AAA001F02AFD70
:10511000DDE7B6A001F026FD204604F065F9014662
:10512000B9A001F01FFD002D294646D0BEA001F018
:1051300019FD6D1E2946C5A001F014FD1C3CADB142
:1051400016E0761EB6B24FF0FF31DAF86C0007F0C9
:10515000FBF8304603F090FC00231A461946DAF8B3
:105160006C0006F045FF052006F0D6FA002EE8D1C7
:105170004FF0FF31DAF86C0007F0E6F84FF6FF70F9
:105180000090681CC0EB0010810032230A22E62048
:1051900003F0A6F947F6EF300090C5EB051081004B
:1051A00032230A22E62003F09BF900231A4619460F
:1051B000DAF86C0006F01CFF15E0ADA001F0D2FC9F
:1051C000E06880B1B3A001F0CDFC57F8040D019068
:1051D0008DF810B0CDF808B004F006F9039001A8DE
:1051E000019C04F0DDFA01208DF8100002955FEAC1
:1051F000893077D5B4A001F0B5FCB8F1000F84D1A7
:10520000019804F0F1F80090014603907EA001F0AF
:10521000A9FC00982946401E854247D2B1A001F062
:10522000A1FC6D1C042D15D016E0761CB6B24FF013
:10523000FF31DAF86C0007F087F8304603F01CFC09
:1052400000231A461946DAF86C0006F0D1FE052054
:1052500006F062FA3C2EE8D32946ABA001F082FCAE
:105260004FF0FF31DAF86C0007F06EF84FF6FF7080
:105270000090681EC0EB0010810032230A22E62055
:1052800003F02EF947F6EF300090C5EB05108100D2
:1052900032230A22E62003F023F900231A46194696
:1052A000DAF86C0006F0A4FE1C3417E09FA001F0B1
:1052B00059FC206990B1A6A001F054FC57F8040FE6
:1052C000002501908DF810B0CDF808B004F08CF8EE
:1052D0000390002601A8019C04F062FA02208DF8D8
:1052E000100002955FEA493021D503208DF81000A7
:1052F000B8F1000F7FF409AF2946A3A001F032FCFA
:10530000216801B9ABA1ADA001F02CFC0295A06908
:1053100038B10446019001A804F042FAA0690025C2
:1053200028B9A16819B14FF0010801A888475FEAC0
:1053300009307FF5EDAE04208DF810002946AAA0B3
:1053400001F010FC216801B99AA1B2A001F00AFC99
:10535000A16819B14FF0010801A8884760690028C9
:105360003FF4D6AE0446CDE9014B00255946B3A023
:1053700001F0F8FB216801B98EA1BBA001F0F2FB9E
:105380004FF0000801A804F00BFAA0E65B61707012
:105390005F7461736B5F6D656E755D2063726561CF
:1053A000746520737563636573730D0A00000000F4
:1053B000000000205B6170705F7461736B5F6D65EE
:1053C0006E755D206D656E752066756E2069732043
:1053D00072756E6E696E672C706C65617365207096
:1053E00072657373206261636B0D0A005B6170709C
:1053F0005F7461736B5F6D656E755D204B45595FC2
:1054000055500D0A000000005B6170705F7461739D
:105410006B5F6D656E755D206974656D5F746F742B
:10542000616C3D25640D0A005B6170705F7461738F
:105430006B5F6D656E755D206974656D5F63757218
:10544000736F72313D25640D0A0000005B6170705E
:105450005F7461736B5F6D656E755D206974656DFA
:105460005F637572736F72323D25640D0A00000030
:105470005B6170705F7461736B5F6D656E755D20ED
:105480006974656D5F637572736F72333D25640D6A
:105490000A0000005B6170705F7461736B5F6D6523
:1054A0006E755D206D656E75206D61696E20737718
:1054B0006974636820746F20746865206C65667415
:1054C000206D656E750D0A005B6170705F746173AD
:1054D0006B5F6D656E755D204B45595F444F574E50
:1054E0000D0A00005B6170705F7461736B5F6D65C6
:1054F0006E755D206974656D5F637572736F72346C
:105500003D25640D0A0000005B6170705F7461737B
:105510006B5F6D656E755D206974656D5F63757237
:10552000736F72353D25640D0A0000005B61707079
:105530005F7461736B5F6D656E755D206974656D19
:105540005F637572736F72363D25640D0A0000004B
:105550005B6170705F7461736B5F6D656E755D200C
:105560006D656E75206D61696E207377697463680F
:1055700020746F20746865207269676874206D6597
:105580006E750D0A000000005B6170705F746173DE
:105590006B5F6D656E755D204B45595F454E54459B
:1055A00052206974656D20637572736F723D256456
:1055B0000D0A00004E554C4C000000005B617070FD
:1055C0005F7461736B5F6D656E755D204B45595FF0
:1055D000454E544552206974656D206E616D65209D
:1055E00025730D0A000000005B6170705F746173C9
:1055F0006B5F6D656E755D204B45595F4241434B56
:10560000206974656D20637572736F723D25640D3A
:105610000A0000005B6170705F7461736B5F6D65A1
:105620006E755D204B45595F4241434B206974655F
:105630006D206E616D652025730D0A005B617070D1
:105640005F7461736B5F6D656E755D206D2D3E706F
:105650006172656E74206974656D20637572736F15
:10566000723D25640D0A00005B6170705F746173A8
:105670006B5F6D656E755D206D2D3E706172656E40
:1056800074206974656D206E616D652025730D0A47
:10569000000000008CB00024059406940794089440
:1056A0002646254670A0049401F05CFA7CA001F027
:1056B00059FA4FF0200B814F02E0642001F028FAE4
:1056C00004F0D6F90028F8D102E0642001F020FAB5
:1056D000002001F0C3FE0028F7D1A246B94604A875
:1056E00001F069FC049A76A1904605A8FAF7CAFE73
:1056F000D9F8280001282FD14FF6FF77CDE9007B9C
:105700005C4600231622A0211E2003F0F9F8CDE903
:10571000007400231722A0213E2003F0F1F8CDE908
:10572000007400231822A0215E2003F0E9F8CDE9DF
:10573000007400231922A0217E2003F0E1F8CDE9B6
:105740000074A021002305AA0846CDF808A003F0A4
:1057500021F9C82001F0DCF9D9F82800022856D137
:105760006D1C642D0AD30499A1EB0800052800D212
:105770000126424653A001F0F5F90025002E46D03F
:10578000002659A001F0EEF94FF6FF77CDE9007B36
:105790005C4600231A22A0211E2003F0B1F8CDE9B7
:1057A000007400231B22A0213E2003F0A9F8CDE9BC
:1057B000007400231C22A0215E2003F0A1F8CDE993
:1057C000007400231D22A0217E2003F099F8CDE96A
:1057D000007400231E22A0219E2003F091F8CDE941
:1057E000007400231F22A021BE2003F089F8474C3B
:1057F0004FF00108C4F8A0825746C4F8A4A2642060
:1058000004F5287401F084F92760C4F80480544634
:10581000CDF814A0CDF818A0CDF81CA00AAA03A9B1
:1058200009A8CDF820A004F071F800287FF457AF44
:10583000C82001F06DF93649039888427FF74FAFD1
:10584000D9F840004F460028F0D105F093FE012022
:105850003864FC6305F0AEFE2EA001F083F9012050
:1058600002F0DEFC3BE700005B6170705F74617307
:105870006B5F6D7075363035305D206372656174B5
:1058800065207375636365737320616E642073753F
:105890007370656E642073656C66200D0A000000ED
:1058A0006D707536303530B3D6D0F8B9A4D7F7D689
:1058B000D02E2E2E2E2E2E720A0000000000002068
:1058C0003A2564005B494E464F5D20B5B1C7B0B282
:1058D000BDCAFD3A256C6420D2D4C7B0B2BDCAFDA2
:1058E0003A256C640D0A00005B494E464F5D20D797
:1058F000F8C1A2B9FDBEC3A3ACC7EBD5BEC6F0C00C
:10590000B4D7DFD7DF2E2E2E0D0A000000804242D2
:1059100000007041CCA7CAD6C1C1C6C10D0A0000A3
:1059200096B00026FAA08DF8546003960496D0E94C
:105930000010CDE90E060D913446109609960A9690
:1059400007968C254FF0A00B4FF00108F2A00896A7
:1059500001F008F94FF0200A4FF6FF77F8484FF0B2
:10596000FF3215A9006E06F053FC81460128F5D1DF
:1059700005F000FEF248C66305F01CFE9DF85420B9
:10598000432A04D0EE48C06A01280DD0E1E08C25FE
:10599000039604964FF0A00B002409960A960796EA
:1059A0004FF001080896D9E72A2A7DD0062C35D277
:1059B00003A8002302550097CDE901A659462846C1
:1059C00002F00CFF642005F0A7FE0097CDE901A6C8
:1059D00000232A225946284602F000FF9DF80C00B9
:1059E00078B117E003A8641E103D06550097CDE975
:1059F00001A6EDB2002320225946284602F0EEFE11
:105A0000ACE70097CDE901A600232022594628469D
:105A100002F0E4FE1035EDB2641C9AE0232AB5D101
:105A200003A9C8A001F09EF806220FA9002000F0EB
:105A30001FFF062203A90FA8FAF7FAFE00287CD060
:105A4000CBA001F08FF8062203A90DA8FAF7F0FE0B
:105A50000028F4D0D3A001F085F8384602F0D7FB37
:105A60002023F02259460020009702F039FDB44C63
:105A70004FF0FF352946E06E06F066FCD7486423F8
:105A800000901A465A21462002F092FC00231A4642
:105A90001946E06E06F0ACFA012005906420002360
:105AA000024605A9069000E0E0E0A06D06F0A0FA2D
:105AB0000146012802D0CAA001F054F82946206FFF
:105AC00006F042FC8146012803D00146D24801F08D
:105AD00049F84FF47A7005F01FFE8C2500240396D8
